S00D00006E6577626C2E73726563FF
S1130000A02300202903000025030000250300008D
S113001000000000000000000000000000000000DC
S113002000000000000000000000000025030000A4
S1130030000000000000000025030000250300006C
S1130040250300002503000025030000250300000C
S1130050250300002503000091140000250300007F
S113006025030000250300002503000025030000EC
S113007025030000250300002503000025030000DC
S113008025030000250300002503000025030000CC
S113009025030000250300002503000025030000BC
S11300A025030000250300002503000025030000AC
S11300B025030000250300002503000010B5064CAD
S11300C02378002B07D1054B002B02D0044800E015
S11300D000BF0123237010BD0000002000000000B9
S11300E074170000084B10B5002B03D007490848CB
S11300F000E000BF07480368002B00D110BD064B89
S1130100002BFBD09847F9E7000000000400002012
S113011074170000741700000000000010B5014BB4
S1130120984710BD7104000000290BD00300013969
S113013089B20131411800201A78801801338B42AA
S1130140FAD170470020FCE710B50C0055230B7062
S1130150543B8B7004334B7003212000054B9847AC
S1130160E070020A2271020C6271000EA071072075
S113017010BDC0462901000010B50C0055230B70BA
S1130180523B8B7002334B7003212000054B984780
S1130190E070020A2271020C6271000EA071072045
S11301A010BDC0462901000010B50C0055230B708A
S11301B0513B8B7004334B7006212000054B98474C
S11301C0A071020AE271020C2272000E60720A200F
S11301D010BDC0462901000010B50C0055230B705A
S11301E0503B8B704B7003212000054B9847E07007
S11301F0020A2271020C6271000EA071072010BD68
S11302002901000010B50C0055230B704F3B8B7077
S113021003334B7007212000054B9847E071020A15
S11302202272020C6272000EA0720B2010BDC04636
S11302302901000010B50C0055230B704B3B8B704B
S1130240043B4B7004212000054B98472071030A9E
S11302506371030CA371000EE071082010BDC04649
S11302602901000010B50C0055230B70493B8B701D
S1130270063B4B7004212000054B98472071030A6C
S11302806371030CA371000EE071082010BDC04619
S11302902901000010B50C0055230B70483B8B70EE
S11302A04B700B212000054B9847E072020A227321
S11302B0020C6273000EA0730F2010BD2901000010
S11302C010B50C0055230B70473B8B7079334B7082
S11302D085212000064B98478523E054030A853482
S11302E06370030CA370000EE070892010BDC0463B
S11302F02901000010B50C0055230B70453B8B7091
S11303000A3B4B7004212000054B98472071030AD7
S11303106371030CA371000EE071082010BDC04688
S113032029010000FEE7000010B5174A174B9A4256
S113033011D01A00164B9A420DD2164A03339B1A57
S11303409B0801339B00002210480F498C588450AD
S113035004329A42FAD1104A104B9A420AD2D34339
S11303600E495B1803218B4304339B18002102C2FE
S11303709342FCD10A4AFF210A4B8B4393600A4BF8
S113038098470A4B9847FEE77417000000000020C6
S1130390000000200400002000000020A003002032
S11303A000ED00E00000000029160000B50B00007D
S11303B0024A136920210B4313617047000800406F
S11303C010B5034B984703490348044B984710BDA5
S11303D0B103000000400041240000206D0D000026
S11303E030B58223DB055122995C0124A14301200D
S11303F00143C9B29954193A995C0F252940113522
S11304002943995452215A5CA2430243D2B25A540A
S113041019395A5C0F2082430D3802435A5430BDB7
S1130420064B4021D02299500331083A9950044A8E
S1130430D3693F390B43D3617047C046001C004069
S11304400008004010B5054B9847002204490548B0
S1130450054B9847054B984710BDC0462104000042
S1130460000800424000002091100000E103000059
S1130470F8B51A4B9847C022D20580235B019361DB
S113048093608223DB0516499962C02636069E6274
S11304904C24195D0120814319558024A401546022
S11304A0104999621049996254604D215D5C04279A
S11304B03D435D5494615C5C84435C548021090237
S11304C091619160094A9A629E624F215A5C82430B
S11304D05A54074B9847074B9847F8BD61110000E1
S11304E00010004000200240000002C000800040D4
S11304F0C10300004504000010B582B0040001A847
S11305000B4B9847E301C022D2059C588222D205A6
S11305109A18126AC021C9058C4663441B6953406A
S11305201C40544001A8034B9847200002B010BD62
S1130530190D0000270D000070B582B005000E00F3
S1130540074C01A92000074B98472000064B984709
S1130550320029000198054B984702B070BDC0468F
S11305604000002009110000DD100000790F000098
S113057070B582B005000E00074C01A92000074B9E
S113058098472000064B9847320029000198054BF4
S1130590984702B070BDC046400000200911000019
S11305A0DD100000450F0000044B1A68043B196875
S11305B081F3088802498B6010477047046000008B
S11305C000ED00E010B50023114C012149421A004E
S11305D02032920011510133082BF8D100230C4C26
S11305E0012149421A006032920011510133082B53
S11305F0F8D1EFF30883074A1360036883F308888C
S1130600FF2302009A43044B9A604368184710BDC5
S113061000E100E06801002000ED00E010B586B0C4
S113062003AC0123E37001332371013363710A22A4
S113063021000020034B98470A212000024B9847D1
S113064006B010BDA90100007105000000B587B017
S11306500F236B44012252421A705A709A70DA7056
S11306600C3203A90020044B98470B2103A8034B29
S1130670984707B000BDC0460502000071050000A0
S1130680F0B5ABB0070002906846C1710C0A0D0CBE
S11306900800039104920593390E6B46DF793F02FB
S11306A00F43E1B2090439432D062943000E130216
S11306B003435B1A194A1A481A4CA04703000E3325
S11306C024D0002826D080220021192002AB9C4689
S11306D06044154B9847114B192202A98C46624479
S11306E01800803019781170013301328342F9D136
S11306F007AC802323718922210000200B4B9847EB
S1130700892120000A4B98472BB0F0BDF22207AB99
S1130710DA70D8E7002207ABDA70D4E7A000002033
S113072024000020B50D000083160000C102000063
S11307307105000084B030B583B005000690080050
S11307400791089209930B0E290E0402214308AA6B
S11307501448154CA04704000120144B984723006B
S1130760113316D023000E330FD0002C15D00822DD
S1130770694600200E4B9847082168460D4B984760
S113078003B030BC08BC04B01847F2236A46D370E7
S1130790EDE7EF236A46D370E9E700236A46D37096
S11307A0E5E7C046240000205D0E0000350D000082
S11307B0650200007105000010B586B0000E0B0242
S11307C00343090E12020A43934201D906B010BD35
S11307D009480A4B984704ACA523E370082221007A
S11307E00020074B984708212000064B984701201A
S11307F0054B9847EAE7C046240000201D0F00007F
S11308003502000071050000350D000010B584B0FC
S113081002AC0023E370082221000020074B984714
S113082008212000064B984780225201C023DB0593
S11308309A61044A044BDA6004B010BDF50200006A
S1130840710500000400FA0500ED00E0F0B5CE46A5
S1130850474680B5A1B00339CBB20E2B1CD8990002
S11308608B4B5B589F468B4C0722010020008A4B20
S11308709847207863781B020343A078000403435D
S1130880E078000618432379617909020B43A179C2
S113089009041943814B984721B00CBC90469946F2
S11308A0F0BD7F4C0722010020007B4B9847207845
S11308B063781B020343A07800040343E078000636
S11308C018432379617909020B43A1790904194377
S11308D0744B9847E0E7744C0B22010020006E4BE8
S11308E09847207863781B020343A07800040343ED
S11308F0E07800061843217963791B020B43A17940
S113090009040B43E17909061943237A627A120236
S11309101343A27A12041A43644B9847BCE7644C0D
S11309200F22010020005C4B9847207863781B025B
S11309300343A07800040343E078000618432179B8
S113094063791B020B43A17909040B43E17909067E
S11309501943227A637A1B021343A27A12041343C3
S1130960E27A12061A43257B637B1B021D43A37B99
S11309701B042B434F4CA0478EE74F4C8C220100A5
S11309802000454B99469847227863781B021A4306
S1130990A3781B041343E27812061A43904627797E
S11309A063791B023B43A7793F043B43E7793F0646
S11309B01F43267A637A1B023343A67A36043343F1
S11309C0E67A36061E43257B637B1B022B43A57BFD
S11309D02D042B43E57B2D061D43210010317C2281
S11309E06846C8474046390032002B00334CA047C4
S11309F052E7334C0F2201002000274B9847207800
S1130A0063781B020343A07800040343E0780006E4
S1130A101843217963791B020B43A17909040B4321
S1130A20E17909061943227A637A1B021343A27AF5
S1130A3012041343E27A12061A43257B637B1B02DA
S1130A401D43A37B1B042B431E4CA04724E71E4CD1
S1130A50072201002000104B9847207863781B027E
S1130A600343A07800040343E07800061843237985
S1130A70617909020B43A17909041943134B98477F
S1130A800AE7132201001248034B984704E7C046C3
S1130A909416000054000020711600001D0600008A
S1130AA0700000204D0600007C000020C5050000F9
S1130AB0C4020020B90700007001002035070000BF
S1130AC08800002081060000980000200D08000026
S1130AD05C000020F0B587B0050014005378C154C1
S1130AE09378012B20D0002B07D0022B25D06378DC
S1130AF001336370002007B0F0BD0378552B0AD092
S1130B00421C01231178552906D00133DBB201328E
S1130B10C82BF7D101E0002323712379EB5C552B1B
S1130B20E5D1543BA370E2E71379C5186B78C72B62
S1130B30DDD8D37002239370D9E711784B1CDBB254
S1130B401370D2789A42D2D10322A2702079821EE5
S1130B509B18DBB2EA185678360297783F04F619E8
S1130B60EB5CF618D3781B06F6180139C9B22818BD
S1130B700D4B984786420ED0002363702370E370B8
S1130B80A370072204A901A8084B9847072104A8C9
S1130B90074B9847ABE70023237163702370E3701E
S1130BA0A370A878A7E7C046290100004901000006
S1130BB071050000F0B5CE4600B582B03F4B9847B2
S1130BC03F48404B984700203F4EB0473F4D430BB2
S1130BD0012423402B700020B047430B23402B708B
S1130BE007223B4900203B4B984707223A49002003
S1130BF03A4B98473A490022CA7040320A7100229F
S1130C004A718A71803ACA7140220A7200224A7279
S1130C108A720F320020334B98470020B047430BB1
S1130C2023402B700020B047400B04402C70C82296
S1130C3000212D482D4B98472D4F2E4E234D01E07A
S1130C402D4B984701A8B847C021C9050B688222DB
S1130C50D205126A0C6954401C40544001A8B047A4
S1130C6080239B0123401A00511E8A412A70002BC5
S1130C70E6D1224C01212000214B98472178214ABA
S1130C801948214B9847214B18700028DAD0C0240A
S1130C90E40580235B0199466361010012481C4B03
S1130CA09847C82200211048104B9847194A1368E6
S1130CB0013313604B46A361C4E7C0461D01000025
S1130CC040000020DD100000F90400009C03002017
S1130CD0540000207901000070000020D9010000B8
S1130CE08800002095020000FC010020831600000B
S1130CF0190D0000270D0000A90500006C0100205B
S1130D00390500004C000020D50A000077000020BF
S1130D104D08000068010020EFF31083036072B6F1
S1130D20BFF35F8F7047BFF35F8F036883F310884F
S1130D307047000010B5044B1C68044B9847010031
S1130D402000034B984710BD1C0000203D110000FB
S1130D505911000010B54369002B00D0984710BD0D
S1130D6010B58369002B00D0984710BD70B50500FD
S1130D700C00002812D00800431E9841C0B238224B
S1130D800749084B984721002800074B984700283B
S1130D9003D1064B2B60064B6B6070BD0020EEE761
S1130DA0D016000035110000A1120000550D0000FE
S1130DB0610D0000F0B5CE4600B582B004000F000E
S1130DC016001D00002818D0002A35D00120002B61
S1130DD014D156221C4900201C4B98470194200032
S1130DE01B4B9847814620001A4B98474B46584363
S1130DF0874216D90E2040421AE00020562212499A
S1130E00124B984701942000114B984781462000CB
S1130E10104B98474B465843B8420FD3EB199842AE
S1130E200FD32B003200390001980B4CA04700204F
S1130E3002B004BC9146F0BD0020DFE70E20404222
S1130E40F6E70E204042F3E7D0160000351100000B
S1130E5001130000051300000B130000F0B5C64693
S1130E6000B582B004000D0017001E00002818D041
S1130E70002A3CD00120002B14D16A2221490020F1
S1130E80214B984701942000204B9847804620002E
S1130E901F4B984743465843854216D90E2040427B
S1130EA021E000206A221749174B9847019420003B
S1130EB0164B984780462000154B984743465843A5
S1130EC0A84216D37319984216D32900019C200016
S1130ED0104B9847002812D133003A002900200013
S1130EE00D4CA047002002B004BC9046F0BD002089
S1130EF0D8E70E204042F6E70E204042F3E71120E7
S1130F004042F0E7D0160000351100000113000044
S1130F1005130000791400005D13000010B50400EF
S1130F20431E9841C0B2F7220349044B984720005E
S1130F30034B984710BDC046D01600003511000081
S1130F400113000070B506000C00150000280DD038
S1130F500800431E9841C0B234220549054B984706
S1130F6033682A0021003000984770BD0020F3E761
S1130F70E81600003511000070B506000C001500DD
S1130F8000280DD00800431E9841C0B23D220549F7
S1130F90054B984773682A0021003000984770BDBC
S1130FA00020F3E7E816000035110000F8B5CE463E
S1130FB0474680B504000F009046002826D000293B
S1130FC026D01000431E9841F1221249124B984733
S1130FD00834124D2000A8470028FBD00026104BEF
S1130FE099460E4DB95D2000C8472000A847002847
S1130FF0FBD001364645F5D30A4D2000A84700280A
S1131000FBD030000CBC90469946F8BD0020DBE7CD
S11310100020D9E7FC160000351100000916000075
S1131020F915000013160000F8B5CE46474680B502
S113103004000F00904600281DD000291DD0100088
S1131040431E9841862252000D490E4B98470026B4
S113105008340D4D0D4B99462000A8470028FBD0BD
S11310602000C847B85501364645F5D330000CBCBE
S113107090469946F8BD0020E4E70020E2E7C04628
S1131080FC160000351100001D16000001160000BA
S113109070B505000C00002813D00800431E9841C9
S11310A0C0B234220849094B98472800083021006F
S11310B0074B9847002803D1064B6B60064B2B6007
S11310C070BD0020EDE7C046FC160000351100009D
S11310D0B915000029100000AD0F000010B5040080
S11310E0431E9841C0B253220449054B984720003F
S11310F00830044B9847002010BDC046FC16000081
S113110035110000E515000070B504000D0000283D
S11311100AD00800431E9841C0B269220349044B17
S113112098472C60002070BD0020F6E7FC160000F4
S113113035110000002800D100BE704710B503012E
S1131140181A000102300321024B984764235843C4
S113115010BDC046AF1100000139FDD87047000032
S113116010B5084B5A685A60074B9847074B984785
S1131170074B9847074B9847FF20074B9847074B67
S1131180984710BD00400041C1140000D91400006C
S11311900912000019150000E5110000A11100005A
S11311A09022D205137802218B431370704710B537
S11311B082B0EFF31083019372B69023DB051A78A3
S11311C00124A2431A709860D9601A001379DB07CE
S11311D0FCD49023DB051869019B83F3108802B0CB
S11311E010BD0000C30707D5044A054B1A62190055
S11311F0044A4B681342FCD17047C0460601010003
S1131200001C0040FD0700000122014B1A717047C9
S113121000080040F8B504000D0017001E0001236B
S11312204B4001201840C52252001949194B9847D8
S113123068080122237D1342FCD0174B238001222E
S1131240237D1342FCD02023FF332383002E0ED0B2
S11312501F3BFF3B290099430023FD5CAAB23E2BB0
S113126010D90A8002339BB202319E42F5D8012282
S1131270237D1342FCD0E061084B069A13439BB2D2
S11312802380F8BDFA18527812022A43E9E7C046CF
S1131290181700003511000044A5FFFF00A5FFFF4B
S11312A070B505000C0000281DD0104BC81843422F
S11312B05841C0B246220E490E4B98472C616268D1
S11312C09E23134063600C4B1D600C4B4022802115
S11312D05A50BFF34F8FBFF36F8F0131FF315A5014
S11312E01A60002070BD0020E4E7C04600C0FFBEC5
S11312F018170000351100002000002000E100E074
S11313004020704780204001704770B54C08056943
S11313100126287D3042FCD02020FF302883002085
S1131320CD0705D50134013081430988090A1170BC
S1131330984211D212186400241A5D1E03E0023090
S11313400232834208D92118098889B21170854272
S1131350F5D9090A5170F2E770BD0000F0B5DE4618
S113136057464E464546E0B5C5B0834616001D00B7
S11313700C002EE0BA4667465B461A690121137DCC
S11313800B42FCD02023FF3313834B465B08D3610D
S1131390364B13802B003D004F46A0460397B146C1
S11313A05E469B46039BFA1A04AB9C4662440423A4
S11313B000933C33390030692D4CA0474037BD427F
S11313C0F0D144465D46B3464E462B19013B9A453F
S11313D044D2FF2322009A4391464B449A468023E9
S11313E05B004B449846170042460392A0464C4685
S11313F0B1465E46AB463A1B04AB9C46624440236E
S1131400390030001B4DA8474037039B9F42F2D15F
S11314105D46B3464E46A14644464B46E31A9909F7
S11314203F2213405445A7D8002DA5D0BC465746AB
S11314308A0104A8804642443078D05401333F22C4
S113144013405A425A41891801340136013DA742DA
S113145090D3002DECD1BA4667468DE745B03CBC2D
S113146090469946A246AB46F0BDC04602A5FFFF92
S1131470151200000B1300000369188C8900090C75
S113148001238B40184043425841C0B270470000CA
S113149010B50A4B186803691A7DD20704D503688E
S11314A0002B00D0984710BD1A7D9207FBD502226D
S11314B01A754368002BF6D09847F4E72000002003
S11314C0044BDA69F82149010A40DA6101221A6100
S11314D07047C046001400400E4B02221A75013AB0
S11314E05A75190003328B691A42FCD10949042246
S11314F08B691A42FCD10722064B9A7519000932EE
S1131500CB681A42FCD0034A137D80210B43137528
S11315107047C046001000407047000010B504003A
S11315201F4BC3189B0ADBB2012B04D01D4A1E4972
S113153000201E4B9847E369DB0718D40322E369B4
S11315401A42FCD123689B070BD5236802229343DC
S113155023600132E3691A42FCD10222E3691A4290
S1131560FCD1052323600322E3691A42FCD1012242
S1131570E3691A42FCD10E4B23600322E3691A4249
S1131580FCD1C0239B0263600722E3691A42FCD1A9
S1131590084BA3810023A3733022A354002010BD61
S11315A000FCFFBD3A0200003817000035110000AE
S11315B00400114056ECFFFF70B505000C00431EFB
S11315C09841C0B2B4220449044B98472C602000CF
S11315D0034B984770BDC046381700003511000012
S11315E01D1500000268136802210B4313600131CA
S11315F0D3691942FCD17047036889B219857047D1
S11316000368188DC0B270470368187E0123184020
S113161070470368187E8007C00F70470368187E00
S11316204007C00F7047000070B500260C4D0D4CEC
S1131630641BA410A64209D1002600F08BF80A4DC1
S11316400A4C641BA410A64205D170BDB300EB582C
S113165098470136EEE7B300EB5898470136F2E7B6
S11316606017000060170000601700006417000096
S1131670002310B59A4200D110BDCC5CC454013390
S1131680F8E703008218934200D1704719700133C0
S1131690F9E700006608000098080000A2080000AE
S11316A098080000D6080000980800001E090000F1
S11316B0980800007A09000098080000F209000068
S11316C0980800004E0A000098080000820A0000F2
S11316D02E2E2F68616C2F7372632F68616C5F66A6
S11316E06C6173682E6300002E2E2F68616C2F735B
S11316F072632F68616C5F696F2E63002E2E2F68F2
S1131700616C2F7372632F68616C5F75736172749F
S11317105F73796E632E63002E2E2F68706C2F6EAC
S1131720766D6374726C2F68706C5F6E766D637423
S1131730726C2E63000000002E2E2F68706C2F73C5
S11317406572636F6D2F68706C5F736572636F6D24
S11317502E630000F8B5C046F8BC08BC9E4670472E
S1131760E5000000F8B5C046F8BC08BC9E467047CA
S1071770BD000000B4
S9030000FC
